{
  "contractName": "Lottery",
  "abi": [
    {
      "inputs": [],
      "stateMutability": "nonpayable",
      "type": "constructor"
    },
    {
      "anonymous": false,
      "inputs": [
        {
          "indexed": false,
          "internalType": "address",
          "name": "participant",
          "type": "address"
        },
        {
          "indexed": false,
          "internalType": "uint256",
          "name": "amount",
          "type": "uint256"
        }
      ],
      "name": "participate",
      "type": "event"
    },
    {
      "anonymous": false,
      "inputs": [
        {
          "indexed": false,
          "internalType": "address",
          "name": "winner",
          "type": "address"
        },
        {
          "indexed": false,
          "internalType": "uint256",
          "name": "amount",
          "type": "uint256"
        },
        {
          "indexed": false,
          "internalType": "address payable[]",
          "name": "participants",
          "type": "address[]"
        }
      ],
      "name": "winnerAnnounce",
      "type": "event"
    },
    {
      "inputs": [],
      "name": "manager",
      "outputs": [
        {
          "internalType": "address",
          "name": "",
          "type": "address"
        }
      ],
      "stateMutability": "view",
      "type": "function",
      "constant": true
    },
    {
      "inputs": [
        {
          "internalType": "uint256",
          "name": "",
          "type": "uint256"
        }
      ],
      "name": "participants",
      "outputs": [
        {
          "internalType": "address payable",
          "name": "",
          "type": "address"
        }
      ],
      "stateMutability": "view",
      "type": "function",
      "constant": true
    },
    {
      "inputs": [],
      "name": "winner",
      "outputs": [
        {
          "internalType": "address payable",
          "name": "",
          "type": "address"
        }
      ],
      "stateMutability": "view",
      "type": "function",
      "constant": true
    },
    {
      "stateMutability": "payable",
      "type": "receive",
      "payable": true
    },
    {
      "inputs": [],
      "name": "getBalance",
      "outputs": [
        {
          "internalType": "uint256",
          "name": "",
          "type": "uint256"
        }
      ],
      "stateMutability": "view",
      "type": "function",
      "constant": true
    },
    {
      "inputs": [],
      "name": "selectWinner",
      "outputs": [],
      "stateMutability": "nonpayable",
      "type": "function"
    },
    {
      "inputs": [],
      "name": "allPlayes",
      "outputs": [
        {
          "internalType": "address payable[]",
          "name": "",
          "type": "address[]"
        }
      ],
      "stateMutability": "view",
      "type": "function",
      "constant": true
    }
  ],
  "bytecode": "0x608060405234801561001057600080fd5b50336000806101000a81548173ffffffffffffffffffffffffffffffffffffffff021916908373ffffffffffffffffffffffffffffffffffffffff160217905550610dec806100606000396000f3fe6080604052600436106100595760003560e01c806312065fe01461014b57806333a99e041461017657806335c1d3491461018d578063481c6a75146101ca57806370174ac0146101f5578063dfbf53ae1461022057610146565b3661014657670de0b6b3a764000034146100a8576040517f08c379a000000000000000000000000000000000000000000000000000000000815260040161009f906107e6565b60405180910390fd5b6001339080600181540180825580915050600190039060005260206000200160009091909190916101000a81548173ffffffffffffffffffffffffffffffffffffffff021916908373ffffffffffffffffffffffffffffffffffffffff1602179055507fb64afbe5ada93a322cc3eba02f09417f8505d803f5e25c9f019de6749f5445cc333460405161013c929190610860565b60405180910390a1005b600080fd5b34801561015757600080fd5b5061016061024b565b60405161016d9190610889565b60405180910390f35b34801561018257600080fd5b5061018b6102e2565b005b34801561019957600080fd5b506101b460048036038101906101af91906108d5565b610591565b6040516101c19190610923565b60405180910390f35b3480156101d657600080fd5b506101df6105d0565b6040516101ec919061093e565b60405180910390f35b34801561020157600080fd5b5061020a6105f4565b6040516102179190610a17565b60405180910390f35b34801561022c57600080fd5b50610235610682565b6040516102429190610923565b60405180910390f35b60008060009054906101000a900473ffffffffffffffffffffffffffffffffffffffff1673ffffffffffffffffffffffffffffffffffffffff163373ffffffffffffffffffffffffffffffffffffffff16146102dc576040517f08c379a00000000000000000000000000000000000000000000000000000000081526004016102d390610a85565b60405180910390fd5b47905090565b60008054906101000a900473ffffffffffffffffffffffffffffffffffffffff1673ffffffffffffffffffffffffffffffffffffffff163373ffffffffffffffffffffffffffffffffffffffff1614610370576040517f08c379a000000000000000000000000000000000000000000000000000000000815260040161036790610a85565b60405180910390fd5b600360018054905010156103b9576040517f08c379a00000000000000000000000000000000000000000000000000000000081526004016103b090610af1565b60405180910390fd5b60006103c36106a8565b90506000600180549050826103d89190610b40565b9050600181815481106103ee576103ed610b71565b5b9060005260206000200160009054906101000a900473ffffffffffffffffffffffffffffffffffffffff16600260006101000a81548173ffffffffffffffffffffffffffffffffffffffff021916908373ffffffffffffffffffffffffffffffffffffffff160217905550600061046361024b565b9050600260009054906101000a900473ffffffffffffffffffffffffffffffffffffffff1673ffffffffffffffffffffffffffffffffffffffff166108fc829081150290604051600060405180830381858888f193505050501580156104cd573d6000803e3d6000fd5b507f7b9c3e4a0ac96ab070027600bb61cc8bf77f93518480efb0b64229a61d7aaa56600260009054906101000a900473ffffffffffffffffffffffffffffffffffffffff1682600160405161052493929190610ceb565b60405180910390a1600067ffffffffffffffff81111561054757610546610d29565b5b6040519080825280602002602001820160405280156105755781602001602082028036833780820191505090505b506001908051906020019061058b9291906106e2565b50505050565b600181815481106105a157600080fd5b906000526020600020016000915054906101000a900473ffffffffffffffffffffffffffffffffffffffff1681565b60008054906101000a900473ffffffffffffffffffffffffffffffffffffffff1681565b6060600180548060200260200160405190810160405280929190818152602001828054801561067857602002820191906000526020600020905b8160009054906101000a900473ffffffffffffffffffffffffffffffffffffffff1673ffffffffffffffffffffffffffffffffffffffff168152602001906001019080831161062e575b5050505050905090565b600260009054906101000a900473ffffffffffffffffffffffffffffffffffffffff1681565b600044426001805490506040516020016106c493929190610d79565b6040516020818303038152906040528051906020012060001c905090565b82805482825590600052602060002090810192821561075b579160200282015b8281111561075a5782518260006101000a81548173ffffffffffffffffffffffffffffffffffffffff021916908373ffffffffffffffffffffffffffffffffffffffff16021790555091602001919060010190610702565b5b509050610768919061076c565b5090565b5b8082111561078557600081600090555060010161076d565b5090565b600082825260208201905092915050565b7f506c65617365207061792031206574686572206f6e6c79000000000000000000600082015250565b60006107d0601783610789565b91506107db8261079a565b602082019050919050565b600060208201905081810360008301526107ff816107c3565b9050919050565b600073ffffffffffffffffffffffffffffffffffffffff82169050919050565b600061083182610806565b9050919050565b61084181610826565b82525050565b6000819050919050565b61085a81610847565b82525050565b60006040820190506108756000830185610838565b6108826020830184610851565b9392505050565b600060208201905061089e6000830184610851565b92915050565b600080fd5b6108b281610847565b81146108bd57600080fd5b50565b6000813590506108cf816108a9565b92915050565b6000602082840312156108eb576108ea6108a4565b5b60006108f9848285016108c0565b91505092915050565b600061090d82610806565b9050919050565b61091d81610902565b82525050565b60006020820190506109386000830184610914565b92915050565b60006020820190506109536000830184610838565b92915050565b600081519050919050565b600082825260208201905092915050565b6000819050602082019050919050565b61098e81610902565b82525050565b60006109a08383610985565b60208301905092915050565b6000602082019050919050565b60006109c482610959565b6109ce8185610964565b93506109d983610975565b8060005b83811015610a0a5781516109f18882610994565b97506109fc836109ac565b9250506001810190506109dd565b5085935050505092915050565b60006020820190508181036000830152610a3181846109b9565b905092915050565b7f596f7520617265206e6f74206d616e6167657200000000000000000000000000600082015250565b6000610a6f601383610789565b9150610a7a82610a39565b602082019050919050565b60006020820190508181036000830152610a9e81610a62565b9050919050565b7f5061727469636970616e747320617265206c657373207468616e203300000000600082015250565b6000610adb601c83610789565b9150610ae682610aa5565b602082019050919050565b60006020820190508181036000830152610b0a81610ace565b9050919050565b7f4e487b7100000000000000000000000000000000000000000000000000000000600052601260045260246000fd5b6000610b4b82610847565b9150610b5683610847565b925082610b6657610b65610b11565b5b828206905092915050565b7f4e487b7100000000000000000000000000000000000000000000000000000000600052603260045260246000fd5b6000819050919050565b6000610bc5610bc0610bbb84610806565b610ba0565b610806565b9050919050565b6000610bd782610baa565b9050919050565b6000610be982610bcc565b9050919050565b610bf981610bde565b82525050565b600081549050919050565b60008190508160005260206000209050919050565b60008160001c9050919050565b600073ffffffffffffffffffffffffffffffffffffffff82169050919050565b6000610c5f610c5a83610c1f565b610c2c565b9050919050565b6000610c728254610c4c565b9050919050565b6000600182019050919050565b6000610c9182610bff565b610c9b8185610964565b9350610ca683610c0a565b8060005b83811015610cde57610cbb82610c66565b610cc58882610994565b9750610cd083610c79565b925050600181019050610caa565b5085935050505092915050565b6000606082019050610d006000830186610bf0565b610d0d6020830185610851565b8181036040830152610d1f8184610c86565b9050949350505050565b7f4e487b7100000000000000000000000000000000000000000000000000000000600052604160045260246000fd5b6000819050919050565b610d73610d6e82610847565b610d58565b82525050565b6000610d858286610d62565b602082019150610d958285610d62565b602082019150610da58284610d62565b60208201915081905094935050505056fea2646970667358221220dd2f85ab1719643b28c97f8228919883dcc5d6093b0b94c87ab02af0c2c2f66164736f6c63430008090033",
  "immutableReferences": {},
  "source": "// SPDX-License-Identifier: MIT\npragma solidity >=0.4.22 <0.9.0;\n\ncontract Lottery {\n\n    address public manager;\n    address payable[] public participants;\n    address payable public winner;\n    \n    constructor() {\n        manager = msg.sender;\n    }\n\n    receive() external payable {\n        require(msg.value == 1 ether, \"Please pay 1 ether only\");\n        participants.push(payable(msg.sender));\n        emit participate(msg.sender,msg.value);\n    }\n\n    function getBalance() public view returns(uint) {\n        require(msg.sender == manager, \"You are not manager\");\n        return address(this).balance;\n    }\n\n    function random() private view returns(uint) {\n        return uint(keccak256(abi.encodePacked(block.difficulty,block.timestamp,participants.length)));\n    }\n\n    function selectWinner() public {\n        require(msg.sender == manager, \"You are not manager\");\n        require(participants.length >= 3, \"Participants are less than 3\");\n        uint r = random();\n        uint index = r % participants.length;\n\n        winner = participants[index];\n        uint balance = getBalance();\n\n        winner.transfer(balance);\n\n        emit winnerAnnounce(winner,balance,participants);\n\n        participants = new address payable[](0);\n    }\n\n    function allPlayes() public view returns(address payable[] memory){\n        return participants;\n    }\n\n    event winnerAnnounce(address winner, uint amount, address payable[] participants);\n    event participate(address participant, uint amount);\n}",
  "sourcePath": "/Users/sarvadhi/Desktop/Dapps/Lottery/contracts/Lottery.sol",
  "compiler": {
    "name": "solc",
    "version": "0.8.9+commit.e5eed63a.Emscripten.clang"
  },
  "schemaVersion": "3.4.3",
  "updatedAt": "2022-11-15T06:27:55.185Z",
  "networkType": "ethereum",
  "devdoc": {
    "kind": "dev",
    "methods": {},
    "version": 1
  },
  "userdoc": {
    "kind": "user",
    "methods": {},
    "version": 1
  }
}